:020000040800F2
:100000000050002091060008C9050008CB05000833
:10001000CD050008CF050008D1050008000000004C
:10002000000000000000000000000000D3050008F0
:10003000D505000800000000D7050008D905000814
:10004000D9060008D9060008D9060008D906000814
:10005000D9060008D9060008D9060008D906000804
:10006000D9060008D9060008D9060008D9060008F4
:10007000D9060008D9060008D9060008D9060008E4
:10008000D9060008D9060008D9060008D9060008D4
:10009000D9060008E1050008D9060008D9060008BD
:1000A000D9060008D9060008D9060008D9060008B4
:1000B000D9060008D9060008D9060008D9060008A4
:1000C000D9060008D9060008D9060008D906000894
:1000D000D9060008D9060008D9060008D906000884
:1000E000D9060008D9060008D9060008000000005B
:1000F0000000000000000000000000000000000000
:0C01000000000000000000005FF808F1A3
:10010C0010B5054C237833B9044B13B10448AFF345
:10011C0000800123237010BD680000200000000047
:10012C00E02C000808B5034B1BB103490348AFF39F
:10013C00008008BD000000006C000020E02C0008CE
:10014C0008B50A4801F058FF094BD3F80434B3F151
:10015C00FF3F06D0064AD2F8002482F3088898475D
:10016C0008BD044801F048FFFEE700BFF82C00086A
:10017C0000400008182D000830B587B00024029408
:10018C00039404940594144B9A6942F010029A61FA
:10019C009A6902F010020092009A9A6942F00402E5
:1001AC009A619B6903F004030193019B0B4D22465A
:1001BC004FF40051284601F0AFF94FF4005302936D
:1001CC000123039304940223059302A9284601F00A
:1001DC0095F807B030BD00BF001002400010014080
:1001EC0008B50848084B03604FF4E1334360002323
:1001FC008360C36003610C2242618361C36101F0BF
:10020C0041FD08BD840000200038014008B50A48B3
:10021C000A4B03600423436000238360C3604FF4E4
:10022C00803202614361037643768376C37603772B
:10023C00437700F0ABFA08BDCC000020006400400E
:10024C0000B583B001904FF0FF33012201A90348A0
:10025C0001F048FD019803B05DF804FB8400002018
:10026C000023436183610361036043608360C36067
:10027C000123C36103620E234362704738B5044601
:10028C000D4600F01DFFD5E900232146032000F0A8
:10029C006FFF00B9083400F02DFF204638BD30B593
:1002AC0091B02822002106A801F086FF00240194B9
:1002BC0002940394049405940225069501230A9351
:1002CC0010230B930D9506A801F042F90F2301930F
:1002DC000295039404940594214601A801F06AFB4D
:1002EC0011B030BD70B596B000F018FAFFF7D7FF1B
:1002FC00FFF742FFFFF774FFFFF788FF524E3046BF
:10030C00FFF7AEFF00F0DCFE4FF4FA6000F02AFAC3
:10031C000B23099301230C9300250B954B4C314671
:10032C00204600F0D9FA204600F05CFB0221204662
:10033C0000F0C3FC882309930D950B9506AB07AA17
:10034C0009A9204600F07CFB414801F055FE4FF412
:10035C007A7000F007FA07AB0FAA2946204600F086
:10036C00E4FB20B90F9A40F245439A4207D0394B2F
:10037C00D3F80024384B9A425ED0384C17E0374CF7
:10038C0015E0374801F038FEFFF7DAFE22E00F9A4D
:10039C0040F243439A4238D00F9A40F244439A4277
:1003AC003CD006AB07AA09A9284800F049FB00215C
:1003BC00264800F06FFC0028F9D007AB0FAA0021EB
:1003CC00224800F0B2FB002832D10F9A40F2414390
:1003DC009A42D6D00F9A40F242439A42D7D1214842
:1003EC0001F00AFE204801F007FE002302931B4B8C
:1003FC0004932F23059300F063FE01A902A800F0DB
:10040C002BFFF0B900F076FEC1E7184801F0F4FDBF
:10041C0007A92046FFF732FF0446BDE7144801F058
:10042C00EBFD06AB07AA09A9084800F009FBB8E7E1
:10043C00104801F0E1FDB4E70F4801F075FDFFF73E
:10044C007FFE002016B070BDF4000020CC00002010
:10045C00382D0008006000080050002000440008FF
:10046C004C2D00085C2D00086C2D00088C2D00080C
:10047C00A02D0008B42D0008C82D000882B00E4B2A
:10048C009A6942F001029A619A6902F001020092A3
:10049C00009ADA6942F08052DA61DB6903F080532A
:1004AC000193019B054A536823F0E06343F000730A
:1004BC00536002B0704700BF0010024000000140C2
:1004CC0010B586B00023029303930493059302683E
:1004DC001A4B9A4201D006B010BD03F5D633DA6937
:1004EC0042F00072DA61DA6902F000720092009A4E
:1004FC009A6942F004029A619B6903F00403019328
:10050C00019B4FF4006302930D4C02A9204600F0AE
:10051C00F5FE4FF4805302930223039303230593B8
:10052C0002A9204600F0EAFE00221146152000F038
:10053C004FFD152000F05CFDCDE700BF00640040CE
:10054C000008014010B586B0002302930393049376
:10055C0005930268174B9A4201D006B010BD03F503
:10056C0058439A6942F480429A619A6902F4804233
:10057C000092009A9A6942F004029A619B6903F016
:10058C0004030193019B4FF4007302930223039322
:10059C0003230593084C02A9204600F0AFFE4FF44C
:1005AC008063029300230393049302A9204600F076
:1005BC00A5FED2E70038014000080140FEE7FEE747
:1005CC00FEE7FEE7FEE770477047704708B500F09E
:1005DC00B7F808BD08B5024800F08EFB08BD00BF97
:1005EC00CC00002070B50C461646002506E0AFF393
:1005FC000080214601F8010B01350C46B542F6DBB3
:10060C00304670BD70B50C461646002504E014F853
:10061C00010BFFF715FE0135B542F8DB304670BD16
:10062C004FF0FF3070474FF400534B600020704781
:10063C00012070470020704710B503460C4A0D4945
:10064C000D48006840B10C4800680344521A9342AC
:10065C0006D8094A136010BD0748084C0460F2E73D
:10066C0001F0F8FD0C2303604FF0FF30F3E700BFFF
:10067C0000500020000400001C0100209802002003
:10068C00704700000C480D490D4A002302E0D45875
:10069C00C4500433C4188C42F9D30A4A0A4C0023C0
:1006AC0001E013600432A242FBD3FFF7E9FF01F033
:1006BC00D7FDFFF717FE70470000002068000020F0
:1006CC00442E00086800002094020020FEE7000081
:1006DC0010B504460E4B1A784FF47A73B3FBF2F351
:1006EC000C4A1068B0FBF3F000F090FC68B90F2CCA
:1006FC0001D901200AE0002221464FF0FF3000F022
:10070C0067FC054B1C60002000E0012010BD00BF01
:10071C0004000020000000200800002008B5074A53
:10072C00136843F010031360032000F03FFC0F200C
:10073C00FFF7CEFFFFF7A2FE002008BD002002400D
:10074C00034A1168034B1B780B441360704700BFBE
:10075C002001002004000020014B1868704700BFE6
:10076C002001002038B50446FFF7F6FF0546B4F12A
:10077C00FF3F02D0044B1B781C44FFF7EDFF401BDE
:10078C00A042FAD338BD00BF04000020002800F0BE
:10079C00A18038B5044690F82030D3B12268136894
:1007AC0043F001031360FFF7D7FF054623685A682F
:1007BC0012F0010F10D1FFF7CFFF401B0A28F5D91B
:1007CC00636A43F400336362052384F8203001200C
:1007DC0038BDFFF775FEE1E71A6822F002021A60D5
:1007EC00FFF7BAFF054623685A6812F0020F0DD0C6
:1007FC00FFF7B2FF401B0A28F5D9636A43F40033B4
:10080C006362052384F820300120E1E7227E012A6F
:10081C003DD01A6822F080021A60637E012B3BD017
:10082C002268136823F040031360A37E012B39D098
:10083C002268136823F020031360E37E012B37D06A
:10084C002268136843F010031360237F012B35D00B
:10085C002268136823F008031360637F012B33D0E5
:10086C002268136823F004031360A368E26813433F
:10087C0022691343626913436268013A2168134386
:10088C00CB6100206062012384F82030A0E71A6855
:10089C0042F080021A60C0E72268136843F04003FC
:1008AC001360C2E72268136843F020031360C4E7A7
:1008BC002268136823F010031360C6E722681368DC
:1008CC0043F008031360C8E72268136843F004037D
:1008DC001360CAE701207047026890F82030013B92
:1008EC00DBB2012B05D9436A43F480234362012018
:1008FC00704710B5D2F8003243F00103C2F8003251
:10090C004B6903F01F03012000FA03F3D2F81C0219
:10091C006FEA030C20EA0300C2F81C02C869C0B9D4
:10092C00D2F80C020CEA0000C2F80C028C88486960
:10093C00D1F80CE044EA0E44483042F830400C88C0
:10094C004869D1F808E044EA0E44483002EBC00094
:10095C004460C86901281AD0886988BBD2F804029F
:10096C000CEA0000C2F80402086978BBD2F8140241
:10097C000CEA0000C2F81402096A01292CD0D2F842
:10098C00003223F00103C2F80032002010BDD2F86F
:10099C000C021843C2F80C028C884869D1F800E0AC
:1009AC0044EA0E44483042F830408C894869D1F80A
:1009BC0008E044EA0E44483002EBC0004460CBE748
:1009CC00D2F804021843C2F80402CDE7D2F814029C
:1009DC001843C2F81402CFE7D2F81C120B43C2F82A
:1009EC001C32CCE770B5044690F82050EDB2012DC6
:1009FC0006D0436A43F4002343620125284670BDA8
:100A0C00022380F820300268136823F0010313607E
:100A1C00FFF7A2FE064623685B6813F0010F0CD0AB
:100A2C00FFF79AFE831B0A2BF5D9636A43F4003354
:100A3C006362052384F82030E0E700256562DDE77A
:100A4C0030B590F820C00468A4680CF1FF3C5FFA44
:100A5C008CFCBCF1010F62D814F0E05F59D0C4F3E8
:100A6C00016C012404FA0CF41C608B68002B3DD142
:100A7C000D68CB68046843EA45550CF118031B015B
:100A8C00E55003680C690CF1180E03EB0E135C6057
:100A9C000B7D012B35D0D17993791B0443EA01638B
:100AAC00517943EA012314790168234301EB0C11BA
:100ABC00C1F88C31D17893781B0443EA01635178E7
:100ACC0043EA0123117802680B4302EB0C12C2F8C3
:100ADC00883102680CF1180C4FEA0C1C52F80C30DF
:100AEC0043F0010342F80C3000201DE04C6843EA4F
:100AFC00C403CC6823430CF11804240105682B5162
:100B0C00BFE7036803EB0E13596841F48071596019
:100B1C00C1E7436A43F400134362012004E0436AD3
:100B2C0043F480234362012030BD90F820C00CF1C7
:100B3C00FF3C5FFA8CFCBCF1010F00F2A58030B4D5
:100B4C0051B90468E46814F0030F10D1436A43F4FC
:100B5C000013436201207EE00468246914F0030F43
:100B6C0005D1436A43F400134362012073E0056826
:100B7C0001F11B0424012C5904F004049460002C92
:100B8C006BD1056801F11B0424012C59640D146010
:100B9C00046801F11B0C4FEA0C1C54F80C4004F0D7
:100BAC000204D4600468A444DCF8045015F0080F67
:100BBC005BD008241461046801F11B0C04EB0C14C9
:100BCC006468C4F307249461046804EB0C1464682F
:100BDC00240C5461026802EB0112D2F8B8211A708D
:100BEC00026802EB0112D2F8B821C2F307225A7044
:100BFC00026802EB0112D2F8B821C2F307429A70D4
:100C0C00026802EB0112D2F8B821120EDA700268F7
:100C1C0002EB0112D2F8BC211A71026802EB01122C
:100C2C00D2F8BC21C2F307225A71026802EB0112FE
:100C3C00D2F8BC21C2F307429A71026802EB01128E
:100C4C00D2F8BC21120EDA71C1B90268D36843F034
:100C5C002003D360002030BC7047056801F11B04F1
:100C6C0024012C59E408546092E701F11B0504EBB4
:100C7C000514646804F00F0414619CE7026813699E
:100C8C0043F020031361E5E7436A43F48023436296
:100C9C000120704790F82030013BDBB2012B01D9C9
:100CAC000020704721B90368D86800F00300704732
:100CBC000368186900F00300704790F82030013B7E
:100CCC00DBB2012B05D9436A43F480234362012034
:100CDC007047026853690B4353610020704770479B
:100CEC007047704770477047704770477047704740
:100CFC0070477047704770472DE9F84F05460368F9
:100D0C005C69D3F804809F68D3F80CB0D3F810A0BA
:100D1C00D3F8189014F001063BD017F0010616D04A
:100D2C0001229A6017F0020F08D117F0040F0CD1B2
:100D3C0017F0080606D04FF4805608E0FFF7CFFFF7
:100D4C00002604E0FFF7CEFF01E04FF4006617F435
:100D5C00807F0DD02B684FF480729A6017F4007F5F
:100D6C0040F0868017F4806F00F0868046F40056C1
:100D7C0017F4803F0DD02B684FF480329A6017F433
:100D8C00003F40F0838017F4802F00F0838046F4FE
:100D9C00004614F0080F07D01BF0100F04D046F4D7
:100DAC0000762B681022DA6014F0040F02D01BF0CE
:100DBC00080F79D114F0020F04D02B68DB6813F004
:100DCC00030F78D114F0400F07D01AF0100F04D095
:100DDC0046F480662B6810221A6114F0200F02D0A2
:100DEC001AF0080F6BD114F0100F04D02B681B698C
:100DFC0013F0030F6AD114F4003F02D018F0100F57
:100E0C0068D114F4803F02D018F0080F69D114F4A3
:100E1C00004F7AD018F0040F74D014F4807F04D0F3
:100E2C0019F0010F01D046F0010614F4007F04D034
:100E3C0019F0020F01D046F0020614F4806F04D0B2
:100E4C0019F0040F01D046F0040614F4006F59D0C9
:100E5C0019F0700956D0B9F1400F65D058D8B9F1D6
:100E6C00200F5ED0B9F1300F42D146F0200644E09D
:100E7C002846FFF735FF7BE717F4006F02D046F4E6
:100E8C00804675E72846FFF72EFF71E72846FFF7E7
:100E9C0028FF7EE717F4002F02D046F4803678E75F
:100EAC002846FFF721FF74E72B680822DA602846F2
:100EBC00FFF71CFF7EE72846FFF717FF82E72B683A
:100ECC0008221A612846FFF713FF8CE72846FFF724
:100EDC000EFF90E72B6810225A602846FFF709FF97
:100EEC008FE72B6808225A602846FFF703FF8EE72E
:100EFC00B9F1100F01D146F008062A68936923F066
:100F0C00700393612B6804225A609EB9BDE8F88F78
:100F1C00B9F1500F0BD0B9F1600FEED146F48076D9
:100F2C00EBE746F01006E8E746F04006E5E746F04A
:100F3C008006E2E76B6A33436B622846FFF7DBFE01
:100F4C00E4E70000002808DB0901C9B200F16040A9
:100F5C0000F5614080F80013704700F00F000901A4
:100F6C00C9B2014B1954704714ED00E000B500F004
:100F7C000700C0F1070CBCF1040F28BF4FF0040CA4
:100F8C00031D062B0FD9C31E4FF0FF3E0EFA0CF0BB
:100F9C0021EA000199400EFA03FE22EA0E0241EA10
:100FAC0002005DF804FB0023EEE70000074AD3685B
:100FBC0023F4E0631B041B0C000200F4E060034309
:100FCC0043F0BF6343F40033D360704700ED00E09F
:100FDC0010B50446054BD868C0F30220FFF7C6FFD6
:100FEC0001462046FFF7AEFF10BD00BF00ED00E04C
:100FFC00002807DB00F01F02400901239340024A3E
:10100C0042F82030704700BF00E100E00138B0F139
:10101C00807F0BD24FF0E0235861054AF02182F813
:10102C0023100020986107221A6170470120704735
:10103C0000ED00E0044B0022DA61044A136943F02E
:10104C000103136101807047280100200020024039
:10105C00194BDB6813F0100305D0184AD36943F021
:10106C000203D3611023144AD26812F0040F06D085
:10107C001249CA6942F00102CA6143F004030E4AE4
:10108C00D26912F0010F09D00C49CA6942F004026E
:10109C00CA610949CA6922F00102CA6140F201120F
:1010AC00934202D0044AD3607047034AD36923F0B9
:1010BC000103D361704700BF0020024028010020CB
:1010CC000A4B1B6913F0800F0BD0084B084A5A606F
:1010DC0002F188325A601B6913F0800F03D1002093
:1010EC007047002070470120704700BF002002406D
:1010FC0023016745034A136943F080031361002001
:10110C00704700BF0020024038B50446FFF724FBAF
:10111C000546164BDB6813F0010F0AD0B4F1FF3F04
:10112C00F7D024B1FFF718FB401BA042F1D90320E4
:10113C001BE00E4BDB6813F0200F02D00B4B202270
:10114C00DA600A4BDB6813F0100F0BD1074BDB692D
:10115C0013F0010F06D1054BDB6813F0040F01D11E
:10116C00002002E0FFF774FF012038BD0020024090
:10117C002DE9F8431E46244B1B7E012B41D004461F
:10118C000F469046204B01221A764CF25030FFF756
:10119C00BBFF034678BB012C08D0022C03D04FF0C8
:1011AC0004091C4607E04FF00209FAE74FF0010969
:1011BC00F7E70134E4B24C451DD22101C1F1200204
:1011CC00A1F1200328FA01F106FA02F2114326FAE2
:1011DC0003F3194389B207EB4400FFF72BFF4CF2E2
:1011EC005030FFF791FF094B1D6925F001051D617A
:1011FC0003460028DDD0044A002111761846BDE8CC
:10120C00F8830223FAE700BF2801002000200240E7
:10121C00064B0022DA61064B1A6942F004021A618D
:10122C001A6942F040021A61704700BF2801002081
:10123C0000200240064B0022DA61064B1A6942F08C
:10124C0002021A6158611A6942F040021A61704731
:10125C002801002000200240264B1B7E012B46D08B
:10126C0070B505460E46234B01221A760368022BF5
:10127C0020D04CF25030FFF747FF90BB4FF0FF33BC
:10128C003360AC680121EA68AB6803EB8223A342AC
:10129C0028D92046FFF7CEFF4CF25030FFF734FF31
:1012AC00154A136923F0020313610146B8B904F51A
:1012BC008064E8E74CF25030FFF726FF08B10121BB
:1012CC0010E00120FFF7A4FF4CF25030FFF71CFF99
:1012DC000146094A136923F00403136102E03460E8
:1012EC0000E00121034B00221A76084670BD022152
:1012FC0008467047280100200020024070B582B0DB
:10130C000024A446A2E07E4DAB4210D007D97D4DFF
:10131C00AB420CD005F58035AB4208D013E0A5F5F7
:10132C008015AB4203D005F57025AB4207D18B6815
:10133C00002B55D0012B4ED04261082403E0A5F5BB
:10134C008015AB42F3D0BEF1FF0F4BD806464FEAE7
:10135C008C0233680F25954023EA050304FA02F248
:10136C00134333604B6813F0805F6DD0664B9A6902
:10137C0042F001029A619B6903F001030193019B06
:10138C004FEA9C02951C614B53F825600CF0030549
:10139C00AD000F23AB4026EA03065D4B984228D0E4
:1013AC0003F58063984200F08D8003F580639842CA
:1013BC0000F08A8003F58063984218D0042319E06A
:1013CC00CC68C0E7CC680434BDE7CC680834BAE715
:1013DC00CC680C34B7E702610824B4E70024B2E708
:1013EC000424B0E7061DACF108029200B1E7032318
:1013FC0000E00023AB4033430232444D45F8223029
:10140C004B6813F4801F61D0424A936843EA0E0381
:10141C0093604B6813F4001F5ED03E4AD36843EAD6
:10142C000E03D3604B6813F4003F5BD0394A53680A
:10143C0043EA0E0353604B6813F4803F58D0354A8F
:10144C00136843EA0E0313600CF1010C0B6833FABA
:10145C000CF253D0012202FA0CF203EA020E32EA29
:10146C000303F1D14B68122B3FF64DAF122B3FF615
:10147C006AAF01A555F823F03B130008CD13000803
:10148C00D7130008E913000853130008531300087E
:10149C005313000853130008531300085313000888
:1014AC005313000853130008531300085313000878
:1014BC00531300085313000853130008D1130008EA
:1014CC00DD130008012395E7022393E7114A936883
:1014DC0023EA0E0393609CE70E4AD36823EA0E03BB
:1014EC00D3609FE70B4A536823EA0E035360A2E7CD
:1014FC00084A136823EA0E031360A5E702B070BD17
:10150C0000002210000031100010024000000140C9
:10151C0000080140000401400AB101617047090450
:10152C000161704782B0084B1B68084AA2FB032379
:10153C005B0A00FB03F3019300BF019B5A1E01924F
:10154C00002BF9D102B0704700000020D34D62107F
:10155C00002800F0F18170B582B00446036813F0E6
:10156C00010F2CD0994B5B6803F00C03042B1DD09E
:10157C00964B5B6803F00C03082B12D06368B3F531
:10158C00803F41D0002B55D103F1804303F5043348
:10159C001A6822F480321A601A6822F480221A60C7
:1015AC0037E08A4B5B6813F4803FE7D0874B1B68AE
:1015BC0013F4003F03D06368002B00F0BF81236855
:1015CC0013F0020F75D0814B5B6813F00C0F5FD0DA
:1015DC007E4B5B6803F00C03082B54D02369002B63
:1015EC0000F08A807A4B01221A60FFF7B5F80546A5
:1015FC00764B1B6813F0020F75D1FFF7ADF8401B4B
:10160C000228F5D903209EE1704A136843F4803315
:10161C001360636843B3FFF79FF805466B4B1B6879
:10162C0013F4003FCBD1FFF797F8401B6428F5D992
:10163C00032088E1B3F5A02F09D0644B1A6822F47B
:10164C0080321A601A6822F480221A60E1E703F1F2
:10165C008043A3F53C331A6842F480221A601A685E
:10166C0042F480321A60D4E7FFF776F80546574B00
:10167C001B6813F4003FA2D0FFF76EF8401B6428E0
:10168C00F5D903205FE1514B5B6813F4803FA5D182
:10169C004E4B1B6813F0020F03D02369012B40F053
:1016AC004F814A4A136823F0F803616943EAC10386
:1016BC001360236813F0080F33D0A369002B5CD0A0
:1016CC00434B0122C3F88024FFF746F805463F4BF5
:1016DC005B6A13F0020F21D1FFF73EF8401B022882
:1016EC00F5D903202FE1394A136823F0F803616917
:1016FC0043EAC1031360DCE7354B00221A60FFF7A5
:10170C002BF80546314B1B6813F0020FD1D0FFF7B5
:10171C0023F8401B0228F5D9032014E10120FFF720
:10172C0001FF236813F0040F00F09680274BDB6950
:10173C0013F0805F34D1254BDA6942F08052DA61C4
:10174C00DB6903F080530193019B0125214B1B683E
:10175C0013F4807F26D0E368012B3DD0002B53D1AE
:10176C0003F1804303F504331A6A22F001021A6272
:10177C001A6A22F004021A6233E0154B0022C3F8F5
:10178C008024FEF7E9FF0546104B5B6A13F0020F4D
:10179C00C7D0FEF7E1FF401B0228F5D90320D2E0A9
:1017AC000025D3E70B4A136843F480731360FEF7EC
:1017BC00D3FF0646074B1B6813F4807FCBD1FEF793
:1017CC00CBFF801B6428F5D90320BCE0001002403D
:1017DC0000004242007000405F4A136A43F001036C
:1017EC001362E36833B3FEF7B7FF06465A4B1B6A26
:1017FC0013F0020F2FD1FEF7AFFF801B41F288339D
:10180C009842F3D903209EE0052B09D0524B1A6A5B
:10181C0022F001021A621A6A22F004021A62E0E74C
:10182C004D4B1A6A42F004021A621A6A42F0010223
:10183C001A62D6E7FEF790FF0646474B1B6A13F079
:10184C00020F08D0FEF788FF801B41F288339842C4
:10185C00F3D9032077E0E5B9E369002B72D03E4A57
:10186C00526802F00C02082A56D0022B17D03B4BC0
:10187C0000221A66FEF770FF0446374B1B6813F004
:10188C00007F47D0FEF768FF001B0228F5D9032024
:10189C0059E0314AD36923F08053D361DCE72F4BF5
:1018AC0000221A66FEF758FF05462B4B1B6813F0F7
:1018BC00007F06D0FEF750FF401B0228F5D903200D
:1018CC0041E0236AB3F5803F1AD023494B6823F4D7
:1018DC007413226A606A024313434B601F4B01224C
:1018EC001A66FEF739FF04461B4B1B6813F0007F8A
:1018FC000ED1FEF731FF001B0228F5D9032022E0A0
:10190C00154A536823F40033A1680B435360DCE79A
:10191C00002018E0002016E0012B16D00E4B5B685F
:10192C0003F48031226A914211D103F47013626A7C
:10193C0093420ED1002006E001207047012002E006
:10194C00012000E0002002B070BD0120FBE7012067
:10195C00F9E70120F7E700BF001002400000424207
:10196C000F4B5B6803F00C02082A01D00D4870473E
:10197C00C3F383420C49885C13F4803F0BD0084BB3
:10198C005B68C3F34043094AD35C064A02FB00F090
:10199C00B0FBF3F07047064B03FB00F0704700BF41
:1019AC000010024000127A00F82D0008F42D0008F7
:1019BC0000093D00002800F0A08070B50D460446DB
:1019CC00524B1B6803F007038B420BD24F4A136830
:1019DC0023F007030B431360136803F007038B42D8
:1019EC0040F08D80236813F0020F17D013F0040F12
:1019FC0004D0474A536843F4E0635360236813F000
:101A0C00080F04D0424A536843F460535360404A71
:101A1C00536823F0F003A1680B435360236813F061
:101A2C00010F31D06368012B20D0022B25D0384A0E
:101A3C00126812F0020F64D035494A6822F0030292
:101A4C0013434B60FEF788FE0646314B5B6803F090
:101A5C000C036268B3EB820F16D0FEF77DFE801B81
:101A6C0041F288339842F0D9032045E0284A1268A5
:101A7C0012F4003FE0D101203EE0254A126812F03A
:101A8C00007FD9D1012037E0204B1B6803F00703FE
:101A9C00AB420AD91D4A136823F007032B4313608A
:101AAC00136803F00703AB422DD1236813F0040F26
:101ABC0006D0174A536823F4E063E1680B43536084
:101ACC00236813F0080F07D0114A536823F46053AE
:101ADC00216943EAC1035360FFF742FF0C4B5B687B
:101AEC00C3F303130B4AD35CD8400B4B18600B4B5E
:101AFC001868FEF7EDFD002070BD01207047012035
:101B0C00FAE70120F8E70120F6E700BF00200240C9
:101B1C0000100240E42D0008000000200800002006
:101B2C00014B1868704700BF0000002008B5FFF794
:101B3C00F7FF044B5B68C3F30223034AD35CD84022
:101B4C0008BD00BF00100240DC2D000808B5FFF7EF
:101B5C00E7FF044B5B68C3F3C223034AD35CD84052
:101B6C0008BD00BF00100240DC2D000810B5044673
:101B7C000268136923F44053C1680B4313618368F3
:101B8C000269134342691A430168CB6823F4B053CA
:101B9C0023F00C031343CB600268536923F44073A6
:101BAC0081690B4353610268134B9A4220D0FFF7B3
:101BBC00BDFF024602EB820202EB820263689B00CD
:101BCC00B2FBF3F20D48A0FB02314909642303FB7D
:101BDC0011231B013233A0FB03035B0903F0F0025A
:101BEC0002EB011203F00F03216813448B6010BD4C
:101BFC00FFF7ACFF0246DDE7003801401F85EB51D3
:101C0C002DE9F84305460F4616469946DDF8208027
:101C1C002B681C6837EA04040CBF01240024B4426E
:101C2C002DD1B8F1FF3FF3D0B8F1000F05D0FEF77E
:101C3C0093FDA0EB09004045EAD92A6802F10C0398
:101C4C0053E8003F23F4D0730C3242E800310029F2
:101C5C00F3D12A6802F1140353E8003F23F0010387
:101C6C00143242E800310029F3D1202385F84130A9
:101C7C0085F84230002385F84030032000E0002036
:101C8C00BDE8F88360B310B5044690F8413013B347
:101C9C00242384F841302268D36823F40053D360A2
:101CAC002046FFF763FF2268136923F49043136106
:101CBC002268536923F02A0353612268D36843F4E2
:101CCC000053D36000206064202384F8413084F8F2
:101CDC004230606310BD80F84030FEF733FCD7E72C
:101CEC00012070472DE9F04182B01E4690F841303A
:101CFC00DBB2202B4BD104460D46904600294AD02E
:101D0C000AB9012044E000234364212380F84130C8
:101D1C00FEF722FD0746A4F82480A4F82680A368C9
:101D2C00B3F5805F02D04FF000080FE02369FBB1E0
:101D3C004FF000080AE038F8023B2268C3F30803AE
:101D4C005360E28C92B2013A92B2E284E38C9BB281
:101D5C008BB100963B46002280212046FFF750FFB6
:101D6C00D8B9002DE7D015F8012B23685A60E8E7A5
:101D7C00A8460025EAE700963B4600224021204673
:101D8C00FFF73EFF58B9202384F8413000E00220D1
:101D9C0002B0BDE8F0810120FAE70320F8E7032048
:101DAC00F6E70000002310B50446C0E90033C0E993
:101DBC000433836081814366C281836119460822A2
:101DCC005C3000F0F9F90D4B246263620C4BA3629A
:101DDC000C4BE3620C4B23630C4B9C4206D003F17F
:101DEC006802944202D0D0339C4205D104F15800D1
:101DFC00BDE8104000F058BA10BD00BF1520000817
:101E0C00372000086F2000089320000848010020AC
:101E1C00024A0349034800F069B800BF0C000020D7
:101E2C004D2B00081C00002041680C4B10B599424A
:101E3C00044601D000F084FEA168094B994202D0FF
:101E4C00204600F07DFEE168064B994204D0204606
:101E5C00BDE8104000F074BE10BD00BF480100206A
:101E6C00B00100201802002010B50B4B0B4C0C4A93
:101E7C0020461A6004210022FFF794FF04F1680049
:101E8C0001220921FFF78EFF04F1D0000222BDE8E8
:101E9C0010401221FFF786BF80020020480100206D
:101EAC001D1E0008014800F000BA00BF8902002086
:101EBC00014800F0FBB900BF8902002010B50446B0
:101ECC00FFF7F0FF236A1BB1BDE81040FFF7F0BF2E
:101EDC00044B2362044B1B68002BF5D1FFF7C4FFA6
:101EEC00F2E700BF351E0008800200202DE9F84300
:101EFC000746884614460026D4E90195B9F1010934
:101F0C0005D52468002CF7D13046BDE8F883AB89A1
:101F1C00012B07D9B5F90E30013303D029463846C9
:101F2C00C04706436835E9E70FB407B5064904AB6B
:101F3C00086853F8042B8168019300F0D7FA03B0BA
:101F4C005DF804EB04B0704718000020036A70B50C
:101F5C0005460E4684680BB9FFF7B0FF636EDB07CE
:101F6C0005D4A389980502D4A06D00F09EF9A3892D
:101F7C00190702D52369002B35D12146284600F0DC
:101F8C00C5F880B34FF0FF35636EDA0705D4A3892B
:101F9C009B0502D4A06D00F089F9284670BD002B7A
:101FAC0004DAA2699A4217DC0A2915D023685A1C54
:101FBC0022601970A36816F8011F013BA360002969
:101FCC00EDD1002B11DA22460A21284600F05FF8E9
:101FDC000130D7D00A25D7E72246284600F057F81B
:101FEC000130E7D1CEE7013EE4E723685A1C2260BA
:101FFC000A221A70EEE70000024B01461868FFF740
:10200C00A5BF00BF1800002010B50C46B1F90E108A
:10201C0000F0FCF80028ABBF636DA3891B1823F4F8
:10202C008053ACBF6365A38110BD2DE9F0411F4601
:10203C008B890546DB050C46164605D50223002286
:10204C00B1F90E1000F0D0F8A389324623F4805376
:10205C00A38128463B46B4F90E10BDE8F04100F0D0
:10206C00E7B810B50C46B1F90E1000F0BDF8431CE2
:10207C00A38915BF606523F4805343F48053A38177
:10208C0018BFA38110BDB1F90E1000F09DB8F8B5C2
:10209C000E461446054618B1036A0BB9FFF70EFF3E
:1020AC00A369A360A3891A0701D5236943B9214603
:1020BC00284600F02BF818B14FF0FF373846F8BD22
:1020CC0023682269F6B2981A63693746834205DCA5
:1020DC002146284600F034FD0028EDD1A368013BD1
:1020EC00A36023685A1C22601E706269431C9A42CA
:1020FC0004D0A389DB07E1D50A2EDFD1214628467F
:10210C0000F01EFD0028D9D0D6E7000038B5294BC9
:10211C00054618680C4618B1036A0BB9FFF7CEFEDA
:10212C00B4F90C30190722D4DA0607D409222A6034
:10213C0043F040034FF0FF30A38133E0580712D532
:10214C00616B41B104F14403994202D0284600F07E
:10215C00AFF800236363A38923F02403A381002336
:10216C00636023692360A38943F00803A381236977
:10217C004BB9A38903F42073B3F5007F03D0214638
:10218C00284600F02AFDB4F90C3013F001020AD0F5
:10219C000022A26062695242A261226942B913F024
:1021AC008000C5D138BD990758BF6269A260F4E7B9
:1021BC000020F7E71800002003460244934200D1A8
:1021CC00704703F8011BF9E738B50023054D0446A9
:1021DC0008462B60FEF724FA431C02D12B6803B18E
:1021EC00236038BD8402002038B5044608461146E9
:1021FC000022054D2A601A46FEF71CFA431C02D138
:10220C002B6803B1236038BD8402002038B5044626
:10221C00084611460022054D2A601A46FEF7E2F9DF
:10222C00431C02D12B6803B1236038BD840200200B
:10223C0038B50446084611460022054D2A601A4658
:10224C00FEF7E0F9431C02D12B6803B1236038BDC3
:10225C0084020020014B1868704700BF1800002052
:10226C0070B500260C4D0D4C641BA410A64209D170
:10227C0000F030FD00260A4D0A4C641BA410A64247
:10228C0005D170BD55F8043B98470136EEE755F87B
:10229C00043B98470136F2E73C2E00083C2E000820
:1022AC003C2E0008402E0008704770477047000015
:1022BC0038B50546002940D051F8043C0C1F002BC2
:1022CC00B8BFE41800F0DEF81C4A136833B9636039
:1022DC0014602846BDE8384000F0DAB8A34208D9AB
:1022EC00206821188B4201BF19685B6809182160AE
:1022FC00EDE71A465B680BB1A342FAD91168501886
:10230C00A0420BD120680144501883421160E0D1E7
:10231C0018685B68084410605360DAE702D90C2334
:10232C002B60D6E7206821188B4201BF19685B68C7
:10233C000918216063605460CBE738BD900200201F
:10234C0070B50F4E0C463168054611B900F0A4FC6F
:10235C0030602146284600F09FFC431C03D14FF00F
:10236C00FF34204670BDC41C24F00304A042F8D0F6
:10237C00211A284600F090FC0130F2D1EFE700BFA3
:10238C008C0200202DE9F843CD1C25F003050835FF
:10239C000C2D38BF0C25002D064601DBA94204D9B3
:1023AC000C2333600020BDE8F883DFF8D48000F004
:1023BC0069F8D8F800301C4644BB29463046FFF774
:1023CC00BFFF431C044658D1D8F800402746002FC5
:1023DC0043D1002C4BD023683946304604EB03091B
:1023EC0000F05AFC814542D1216830466D1A2946CD
:1023FC00FFF7A6FF01303AD023682B442360D8F8AE
:10240C0000305A6862BBC8F800700FE02268521B9B
:10241C0020D40B2A17D96119A342256018BF596023
:10242C00636808BFC8F8001062514B60304600F07A
:10243C002FF804F10B00231D20F00700C21A1CBF5B
:10244C001B1AA350AFE76268A3420CBFC8F8002068
:10245C005A60EBE723466468AEE73C467F68B6E714
:10246C001A465B68A342FBD100235360DEE70C23C2
:10247C003046336000F00CF894E70560D6E700BFF7
:10248C00900200200148FFF710BF00BF8802002017
:10249C000148FFF70BBF00BF88020020936810B4FF
:1024AC00013B002B936007DA9469A34201DB0A29F4
:1024BC0002D110BCFFF7EBBD1368581C10601970EB
:1024CC00084610BC7047F8B506460F461446D5189A
:1024DC00AC4201D1002007E03A46304614F8011B0B
:1024EC00FFF7DCFF431CF3D1F8BD00002DE9F04FE2
:1024FC000D461446984606469DB018B1036A0BB9B2
:10250C00FFF7DCFC6B6ED90705D4AB899A0502D4B6
:10251C00A86DFFF7CAFEAB891B0701D52B699BB9C8
:10252C0029463046FFF7F2FD70B16B6EDC0704D51F
:10253C004FF0FF301DB0BDE8F08FAB899805F7D494
:10254C00A86DFFF7B3FEF3E70023099320238DF862
:10255C00293030234FF00109CDF80C80DFF8A88129
:10256C008DF82A3023469A4613F8012B0AB1252AF6
:10257C00F9D1BAEB040B0BD05B4622462946304608
:10258C00FFF7A1FF013000F0A780099A5A44099285
:10259C009AF80030002B00F09F8000234FF0FF32A0
:1025AC00CDE905230AF1010A049307938DF8533002
:1025BC001A935446052214F8011B534800F07CFB77
:1025CC00049AD8B9D10644BF20238DF85330130791
:1025DC0044BF2B238DF853309AF800302A2B15D09A
:1025EC00544600204FF00A0C079A214611F8013B83
:1025FC00303B092B4BD9B0B1079214E0A0EB080388
:10260C0009FA03F31343A2460493D2E7039B191D63
:10261C001B680391002BBBBF5B4242F00202079385
:10262C000793B8BF049223782E2B0AD163782A2BF8
:10263C0032D1039B02341A1D1B68039243EAE373E5
:10264C000593DFF8C8A003225046217800F034FB34
:10265C0038B14022049BA0EB0A00824013430134A2
:10266C00049314F8011B062229488DF8281000F059
:10267C0023FB00283FD0274B1BBB039B073323F0C6
:10268C00070308330393099B3B4409936AE70C4601
:10269C0001200CFB0232A8E700234FF00A0C19466C
:1026AC0001340593204610F8012B303A092A03D93E
:1026BC00002BC6D00591C4E7044601230CFB012175
:1026CC00F0E703AB00932A463046134B04A9AFF353
:1026DC0000800746781CD6D16B6ED90705D4AB8920
:1026EC009A0502D4A86DFFF7E1FDAB895B063FF5B7
:1026FC001FAF09981EE703AB00932A463046064BE2
:10270C0004A900F07DF8E4E7082E00080E2E00085E
:10271C00122E000800000000D32400082DE9F04719
:10272C00164698468A680B6907469342B8BF13460B
:10273C00336091F843200C46DDF820900AB1013348
:10274C0033602368990642BF3368023333602568CF
:10275C0015F0060506D104F1190AE36832689B1AD4
:10276C00AB422BDC94F843302268003B18BF0123AA
:10277C00920630D44146384604F14302C847013032
:10278C0023D02368226903F00603042B14BF002511
:10279C0033684FF0000608BFE56804F11A0408BF5F
:1027AC00ED1A54F8123C08BF25EAE5759342C4BFF4
:1027BC009B1AED18B5421AD1002008E001235246AD
:1027CC0041463846C847013003D14FF0FF30BDE8D1
:1027DC00F0870135C1E73020E11881F843005A1C1D
:1027EC0094F845102244023382F84310C2E70123C7
:1027FC00224641463846C8470130E6D00136D9E773
:10280C002DE9FF470F7E9146782F80460C469A465D
:10281C000C9E01F1430207D8622F0AD8002F00F05A
:10282C00D380582F00F0BA8004F1420684F842702D
:10283C003AE0A7F16303152BF6D801A151F823F068
:10284C00A5280008B92800083528000835280008F4
:10285C003528000835280008B92800083528000854
:10286C00352800083528000835280008BB29000841
:10287C00E3280008752900083528000835280008C9
:10288C00DD29000835280008E32800083528000851
:10289C00352800087D29000833681A1D1B68326032
:1028AC0004F1420684F8423001239EE0336820682C
:1028BC00191D3160060601D51D6803E04506FBD5E0
:1028CC00B3F90050002D03DA2D236D4284F8433008
:1028DC000A23594811E021683368080653F8045B51
:1028EC0002D4490648BFADB26F2F336014BF0A2320
:1028FC0008235148002184F843106668002EA8BFB5
:10290C002168A660A4BF21F0040121600DB9002E3E
:10291C004BD01646B5FBF3F103FB1157C75D06F818
:10292C00017D2F46BB420D46F4D9082B0BD12368F1
:10293C00DF0708D5236961689942DEBF302306F8AA
:10294C00013C06F1FF36921B22614B462146404664
:10295C00CDF800A003AAFFF7E1FE01304AD14FF0F9
:10296C00FF3004B0BDE8F087236843F020032360F8
:10297C007827324884F84570236831681F0651F86F
:10298C00045B02D45F0648BFADB23160D90744BFC7
:10299C0043F0200323601DB11023ABE72648E9E781
:1029AC00236823F020032360F6E71646BDE733685F
:1029BC002568181D616930602E061B6801D51960E9
:1029CC0002E06806FBD51980002316462361BCE79C
:1029DC00336800211A1D32601E686268304600F0B0
:1029EC006BF908B1801B606063682361002384F875
:1029FC004330AAE73246494640462369D047013066
:102A0C00ADD023689B0713D4E068039B9842B8BFF2
:102A1C001846A6E70123324649464046D0470130C6
:102A2C009DD00135E36803995B1AAB42F2DCEBE70E
:102A3C00002504F11906F5E7192E00082A2E0008C6
:102A4C00B1F90C20F8B5160705460C4654D44B6862
:102A5C00002B02DC0B6C002B48DDE66A002E45D007
:102A6C00002312F480522F68216A2B6030D0626DE3
:102A7C00A389590705D56368D21A636B0BB1236C14
:102A8C00D21A00232846E66A216AB047431CA38960
:102A9C0006D129681D292BD8284A0A41D60727D4E4
:102AAC00002262602269D904226004D5421C01D143
:102ABC002B6803B96065616B2F60B9B104F14403F5
:102ACC00994202D02846FFF7F3FB002363630DE025
:102ADC0001232846B0470246501CC9D12B68002B55
:102AEC00C6D01D2B01D0162B1DD12F60002021E04C
:102AFC0043F040031BB21AE00F69002FF6D0930786
:102B0C0018BF00230E6808BF4B69F61B0F608B6063
:102B1C00002EEBDD33463A462846216AD4F828C00D
:102B2C00E047002807DCB4F90C3043F040034FF0C9
:102B3C00FF30A381F8BD0744361AE9E7FEFFBFDF7B
:102B4C0038B50B6905460C4613B90025284638BD27
:102B5C0018B1036A0BB9FFF7B1F9B4F90C30002BBB
:102B6C00F3D0626ED00704D4990502D4A06DFFF7A0
:102B7C009CFB28462146FFF763FF636E0546DA0788
:102B8C00E4D4A3899B05E1D4A06DFFF78FFBDDE7AF
:102B9C0070B50C46B1F90E10154600291E4696B0BC
:102BAC000CDAA389002113F0800F14BF40234FF4DB
:102BBC008063002031602B6016B070BD6A4600F057
:102BCC0049F80028EDDB019901F47041A1F500539F
:102BDC00594259414FF48063EBE78B89F7B59D0758
:102BEC0006460C4607D504F14703236023610123F5
:102BFC00636103B0F0BD6A4601ABFFF7C9FF009FEC
:102C0C00054639463046FFF7BDFB48B9B4F90C30E0
:102C1C009A05EED423F0030343F00203A381E2E709
:102C2C00A389C4E9040743F08003A381019B2060BE
:102C3C005BB13046B4F90E1000F01EF828B1A38930
:102C4C0023F0030343F00103A381A3891D43A58152
:102C5C00CFE7000038B50023064D04460846114660
:102C6C002B60FDF7E0FC431C02D12B6803B1236001
:102C7C0038BD00BF8402002038B50023054D044642
:102C8C0008462B60FDF7D4FC431C02D12B6803B122
:102C9C00236038BD8402002038B50023054D04465E
:102CAC0008462B60FDF7C8FC431C02D12B6803B10E
:102CBC00236038BD84020020034610B5C9B202441B
:102CCC009342184601D1002003E0047801338C4272
:102CDC00F6D110BDF8B500BFF8BC08BC9E467047D5
:0C2CEC00F8B500BFF8BC08BC9E4670475D
:102CF800476F6E6E61204A756D7020746F20417049
:102D0800706C69636174696F6E2E2E2E000000006E
:102D1800496E76616C6964204170706C6963617496
:102D2800696F6E2E2E2E2048414C542121210D0012
:102D38006E6F726D616C2074657374207374617248
:102D4800742000006A756D7020746F2061707020A7
:102D580000000000657261736520697320646F6903
:102D68006E67200045726173696E6720746865201C
:102D7800466C617368206D656D6F72792E2E2E0D0D
:102D880000000000464C4153494E472069732064B7
:102D98006F696E672000000074657374696E672040
:102DA800697320646F696E67200000006E6F726D32
:102DB800616C207465737420656E642000000000E7
:102DC8006A756D7020746F20617070206C61737407
:102DD80000000000000000000102030400000000E1
:102DE80000000000010203040607080901020000B0
:102DF80002030405060708090A0B0C0D0E0F101034
:102E0800232D302B2000686C4C00656667454647CB
:102E1800003031323334353637383941424344454E
:102E280046003031323334353637383961626364BD
:042E380065660000CB
:042E3C003101000858
:042E40000D01000878
:102E44000024F40001000000100000000000000055
:102E540003000000480100201C00002000000000C6
:102E640048010020B00100201802002000000000EA
:102E7400000000000000000000000000000000004E
:102E8400000000000000000000000000000000003E
:102E9400000000000000000000000000000000002E
:082EA400000000000000000026
:040000050800069158
:00000001FF
